:040000000C947D04DB
:040008000C945020E4
:040010000C94D42058
:04003C000C94F02010
:080048000C945B090C9486097D
:080078000C941B0A0C94470ACA
:14008C001F0D780EB30E2C0BE810B10F480C390C1B0C9E0F91
:1400A0008B0F530EFA0D3A0EBA0D7C0F510F400F0B0F100DCA
:1400B4005D0D010DED0CD60CCC0C6C0E8D0CF00A8E3300003F
:1400C800C8420000204100007A44286E756C6C207074722082
:1400DC0070617373656429000000803F0000404200002041C5
:1400F000CDCCCC3D000000000000000000202020202020207A
:14010400202030303030302020202020202020202020202017
:14011800202020202090404040404040404040404040404023
:14012C00400C0C0C0C0C0C0C0C0C0C40404040404040090935
:14014000090909090101010101010101010101010101010177
:14015400010101014040404040400A0A0A0A0A0A02020202CF
:14016800020202020202020202020202020202024040404063
:14017C0020000000000000000000000000000000000000004F
:1401900000000000000000000000000000000000000000005B
:1401A400000000000000000000000000000000000000000047
:1401B800000000000000000000000000000000000000000033
:1401CC0000000000000000000000000000000000000000001F
:1401E00000000000000000000000000000000000000000000B
:1401F40000000000000000000066746F61206572726F723AC9
:14020800206E756D62657220746F6F206269670066746F61CB
:14021C00206572726F723A206E756D62657220746F6F20739C
:140230006D616C6C0066746F61206572726F723A20756E657E
:1402440078706563746564206572726F72000000003F17B762
:14025800D138000020410000803F000080BF00000000900199
:14026C008701770165015401440138010000FFFF257300436C
:140280006F6D6D616E64206572726F722025730A0D006C6FFA
:1402940061646572005F6573636170655F00434D445F5449BB
:1402A8004D454F555400434D445F4152475F494E56414C4989
:1402BC004400434D445F4152475F52455155495245440043DA
:1402D0004D445F4152475F52414E47455F45525200434D4468
:1402E4005F4E4F545F444546494E454400434D445F46414965
:1402F8004C00434D445F5355434345535300000049063A06CB
:14030C00C0000036062106BE00001D060906BC00000406F311
:1403200005BA0000EF05E205B80005DD05CA05B60000C50541
:140334007905B4000573056805B2000063053F05B00005394D
:14034800052B05AE00002705FB04AC0005F604E104AA000059
:14035C00DC04C504A80003BF04A704A60000A2048A04A4004D
:140370000384046B04A2000063043804A000002D04FE039ECA
:140384000000F903D9039C0005D303C3039A0000BE0397035B
:1403980098000092036D03960000680342039400003903237B
:1403AC00039200001D032106BE0000180300009000001403E1
:1403C00000008E00050E0300008C00000D030D0300000020B9
:1403D4002020202020205573696E67204D414E55414C2064ED
:1403E800656661756C7420706172616D65746572732E0D0DE4
:1403FC00000D4552524F523A20454550524F4D207361766565
:140410006420706172616D65746572732061726520636F7264
:140424007275707465642E0D0054484F524C414253205343E0
:1404380031302056455253494F4E20312E30370D00256C6421
:14044C000D00307825780D0025640D00300D00310D00257394
:14046000092D2025730D00436F6D6D616E64733A0D0D0025E2
:14047400750D0000737461743F006B6579007363723F002AFD
:1404880069646E3F0075702C20646F776E2C206C6566742CDA
:14049C00207269676874005F6573636170655F004C6F61645F
:1404B0002064657669636520636F6E66696775726174696F7E
:1404C4006E2066726F6D20454550524F4D00726573700053ED
:1404D800746F72652064657669636520636F6E666967757249
:1404EC006174696F6E20696E20454550524F4D007361767048
:1405000000536176652042617564205261746520616E64209D
:140514004F75747075742054726967676572204D6F646500A9
:140528007361766500426175642052617465205175657279B2
:14053C0000626175643F004261756420526174650D09202052
:1405500028303D393630302C20313D313135323030290062C5
:1405640061756400496E7465726C6F636B205472697070650A
:14057800642051756572790D09202028303D66696E652C20FC
:14058C00313D747269707065642900696E7465726C6F636B01
:1405A0003F005368757474657220436C6F7365642051756554
:1405B40072790D09202028303D6F70656E2C20313D636C6FB3
:1405C8007365642900636C6F7365643F005368757474657212
:1405DC0020436C6F73652054696D6520517565727900736835
:1405F00075743F005368757474657220436C6F7365205469ED
:140604006D6520286D7329007368757400536875747465720C
:14061800204F70656E2054696D65205175657279006F7065F3
:14062C006E3F0053687574746572204F70656E2054696D65BD
:1406400020286D7329006F70656E004F75747075742054722C
:1406540069676765722051756572790078746F3F004F75747C
:1406680070757420547269676765720D09202028303D73686B
:14067C0075747465722C20313D636F6E74726F6C6C6572290F
:140690000078746F005472696767657220517565727900747D
:1406A4007269673F00547269676765720D09202028303D6999
:1406B8006E7465726E616C2C20313D65787465726E616C29F4
:1406CC000074726967004D6F6465205175657279006D6F6469
:1406E000653F0041737369676E204F7065726174696E672014
:1406F4004D6F64650D09202028313D6D616E75616C2C203285
:140708003D6175746F2C20333D73696E676C652C20343D727A
:14071C0065706561742C20353D65787465726E616C29006D03
:140730006F64650052657065617420436F756E7420517565A8
:140744007279007265703F0052657065617420436F756E74A6
:14075800007265700047657420456E61626C65205374617403
:14076C006500656E733F00546F67676C6520456E61626C65C6
:1407800020537461746500656E73004964656E74696669636F
:140794006174696F6E2051756572790069643F00436F6D6D68
:1407A800616E6473205175657279003F0025326400302523EF
:1407BC002D362E336600303025232D352E33660056455253EE
:1407D000494F4E20312E30370054484F524C41425320534334
:1407E40031300025232D372E33660000860786077D07740714
:1407F8006B076207590786074807370786072E0725073E204C
:14080C00000D54484F524C41425320534331302056455253F5
:14082000494F4E20312E30370D0020202020202020557369DA
:140834006E672064656661756C7420666163746F727920643A
:14084800656661756C7420706172616D65746572732E0D0D7F
:14085C00000D4552524F523A20454550524F4D20646566611F
:14087000756C7420706172616D6574657273206172652063F0
:140884006F727275707465642E0D002020204558542020001F
:14089800202020494E5420200020494E5445524C4F434B20D6
:1408AC004F50454E200020534855545445522020414C415237
:1408C0004D2000205820474154452000205245502020202057
:1408D400002053494E474C4520002020204155544F20002035
:1408E8004D414E55414C200020202020202020200000CFEF60
:1408FC00D0E1CDBFDEBFC058D0400AEA08830024E0E9F7E0A3
:140910001BE0ED31F10711F00192FBCF0083EAE6F2E0A0E0BF
:14092400B1E018E000E00BBFEA3FF10721F0C89531960D9297
:14093800F9CF0E94941CFFCF0E94172828970E94510681E0C9
:14094C008BBF80E09FED9D838C8322278C010E94400658011B
:140960000834E4E51E0711F001E0C0C08C819D8102969D8314
:140974008C8322278C010E94400658010235EFE41E0711F019
:1409880001E0B0C08C819D8102969D838C8322278C010E94A0
:14099C004006680156010134ECE41E0711F001E09FC08C81C9
:1409B0009D8102969D838C8322278C010E94400668015601D0
:1409C4000335E2E41E0711F001E08EC08C819D8102969D83E9
:1409D8008C8322278C010E944006580175018C819D810296AC
:1409EC009D838C8322278C010E9440065801BF82AE8205013A
:140A00000E0C1F1C1F820E828C819D8102969D838C83222721
:140A14008C010E94400658016501AA24BB24170144245524F4
:140A280040E051E060E070E05A924A923A922A928A019B0162
:140A3C000E94CC27088319832A833B8331C0288039804A8063
:140A50005B80E42DE17019F081E08BBF02C022242BBE4FEF72
:140A64005FEF60E070E0288039804A805B8024223522462295
:140A780057223D822C82222781010E9440067801A00EB11EDB
:140A8C0042E050E060E070E0288039804A805B80240E351EE9
:140AA000461E571E288239824A825B822E803F80442455240D
:140AB40040E051E060E070E05A924A923A922A928A019B01D6
:140AC8000E94CC27288039804A805B80201631064206530671
:140ADC0008F4B5CFAC14BD0411F002E001C0002728960C94DC
:140AF0000C28F89422242BBE81E085BF25BEA7D00C94000064
:140B040008950E94222829E003E010E00E944006A02E8A2D0B
:140B180099279595879583709070A82EF89481E085BF82E067
:140B2C0085BF4A2D55274030450769F04130E0E05E0761F082
:140B40004230E0E05E0759F04330E0E05E0751F00BC00C947D
:140B540000F008C00C9400F805C00C9400FC02C00C9400FE7C
:140B68000C9427280E941B28C22EE02EAFB6EBBE2C2C3324EA
:140B7C00322C2224610123E081010E942F0625E086010E94D5
:140B90002F060E94510622242BBEAFBE0C9405280E941B28D5
:140BA400C22EE02EAFB6EBBE2C2C3324322C2224610123E079
:140BB80081010E942F060E94510622242BBEAFBE0C9405286E
:140BCC000E9411270E941728E22ECFB6AA242E2C3324322CE8
:140BE000222471014427552719C00A840BBE22278701040F4E
:140BF400151F0E944006B801CB0190702A2C3324280E391E12
:140C0800CB01892F992790703324280E391EA22C4E5F5F4F87
:140C1C004030E1E05E0718F3CFBE0A2D0E940C282496089532
:140C3000AA924A93402F47704860AFB6F89488E181BD41BD33
:140C4400AFBEA8954991A99008950FB7F89488E181BD222403
:140C580021BC0FBF089527D0F12FE02F20936800E8950895E5
:140C6C0020D0F32FE22F112E002E31E030936800E89508958E
:140C8000F12FE02F20FD20936800D895002DE395D895102D3D
:140C94000895002E19E010936800E895089505D0B1E1B093B9
:140CA8006800E8950895B0916800B0FDFCCF08950E9411271E
:140CBC000E94172859012E97CC8C222433243F822E823B8201
:140CD0002A824427CE0108969D838C838E010E5F1F4F0E9451
:140CE4000B0B0030010711F4042FCAC20E94D40A1B830A833F
:140CF800C8010D30E0E01E0709F4AAC00B31E0E01E0709F478
:140D0C00A5C00830E0E01E0741F080910E0190910F0180341B
:140D2000E0E09E0771F52224332440900E0150900F01241450
:140D340035040CF0A4C208E00E94F00A00E20E94F00A08E026
:140D48000E94F00A209010013090110140900E0150900F0199
:140D5C004214530431F48FEF9FEF909311018093100180913B
:140D70000E0190910F01019790930F0180930E0180C28A81F5
:140D84009B818831E0E09E0719F518C008E00E94F00A00E2D5
:140D98000E94F00A08E00E94F00A8FEF9FEF909311018093D3
:140DAC00100180910E0190910F01019790930F0180930E01E4
:140DC0002224332440900E0150900F0124143504FCF257C23B
:140DD4008A819B818D33E0E09E0731F5809110019091110144
:140DE8008030E0E09E07F4F460910E0170910F01CB01019686
:140DFC0090930F0180930E0180E997E0FB01E80FF91F22245D
:140E1000208220900E0130900F0130921101209210010A817B
:140E24001B810E94F00A2BC260910E0170910F01CB01019621
:140E380090930F0180930E0180E997E0FB01E80FF91F2A80BC
:140E4C003B80208281010E94F00A15C28A819B818B31E0E09D
:140E60009E07A9F42FE231E000E917E00E94FC2600E917E096
:140E74000E9405277801F0920F01E0920E0117013092110124
:140E88002092100104C00A811B810E94F00A80E997E0E091BB
:140E9C000E01F0910F01E80FF91F2224208280911001909168
:140EB00011018F3FEFEF9E0741F420900E0130900F01309245
:140EC40011012092100120E937E008E211E00E94EF2678011A
:140ED8000030010711F40E9483056627772742E06CC120E91C
:140EEC0037E007E010E02F933F939B010E94BC273F912F91BF
:140F0000F801088C198CE00DF11D008111810E94EF2678016D
:140F14000030010709F051C1442707E010E09B010E94BC2723
:140F2800F801088C198CE00DF11DE680FF24EE2019F4FF20C5
:140F3C0009F438C0C7018130E0E09E0709F458C08230E0E047
:140F50009E0709F453C08330E0E09E0709F468C08430E0E027
:140F64009E0709F463C08530E0E09E0709F4BDC08630E0E0AA
:140F78009E0709F485C08730E0E09E0709F480C08830E0E0AD
:140F8C009E0709F4AEC08930E0E09E0709F4D3C08A30E0E019
:140FA0009E0709F4ECC08B30E0E09E0779F005C180E997E0C0
:140FB400E0911001F0911101E80FF91F2080222009F40FC156
:140FC80042E00DC180E997E0E0911001F0911101E80FF91F21
:140FDC002080222011F444E000C180E997E0209010013090D4
:140FF0001101280E391E3D822C82F5C080E997E0E0911001CA
:14100400F0911101E80FF91F2080222011F444E0E8C080E91A
:1410180097E0E0911001F0911101E80FF91F2080EC81FD819E
:14102C002082DBC080E997E0E0911001F0911101E80FF91F6F
:141040002080222011F444E017C022243324398228829E0119
:141054002A5F3F4F80E997E00091100110911101080F191FED
:141068000E94782EEC81FD810083118322833383EE81FF81E0
:14107C002080222009F4B1C045E0AFC080E997E0E09110011A
:14109000F0911101E80FF91F2080222011F444E01EC022247B
:1410A4003324398228829E012A5F3F4F80E997E00091100144
:1410B80010911101080F191F0E940A2D1801442437FC4094C1
:1410CC00552447FC5094EC81FD812082318242825382EE8128
:1410E000FF812080222009F47EC045E07CC080E997E0E091AD
:1410F4001001F0911101E80FF91F2080222011F444E015C055
:1411080022243324398228829E012A5F3F4F80E997E00091AA
:14111C00100110911101080F191F0E94782EEC81FD811183E5
:141130000083EE81FF812080222009F454C045E052C080E9A6
:1411440097E0E0911001F0911101E80FF91F2080222011F415
:1411580044E045C080E997E00091100110911101080F191FD6
:14116C000E944F30EC81FD81008311832283338334C080E994
:1411800097E0E0911001F0911101E80FF91F2080222011F4D9
:1411940044E027C080E997E00091100110911101080F191FB8
:1411A8000E944F30EC81FD81008311832283338316C045E0BA
:1411BC0014C06F5F7F4F07E010E09B010E94BC27F801088C2A
:1411D000198CE00DF11D24803580222009F085CE332009F038
:1411E40082CE8FEF9FEF9093110180931001222433243092E3
:1411F8000F0120920E01442329F5CE010496FE013C9602E071
:14120C0010E0FA93EA939A938A930E94A7288E01045F1F4FB9
:1412200087E090E00F931F939B018C010E94BC27F8011F9138
:141234000F91088C198CE00DF11DA481B581FD010E9464284B
:14124800E02E4E2D442381F0CC2071F080E091E0E42FFF27DA
:14125C00EE0FFF1FE80FF91F2081318105E111E00E947833DD
:14127000AA2011F4BB2029F0950102E111E00E947833042FBD
:141284002E960E940C2824960895AA921801232C33242092B8
:14129800900009B988E98AB9AA24A0921208A0921308A092A3
:1412AC00D007A092D107A99008952A920A932A938A939A9317
:1412C000EA93FA932FB62A924A935A930FB72CB14091130816
:1412D4004F5F4F7F20901208421549F04093130884E198E065
:1412E800E42FFF27E80FF91F20830FBF5991499129902FBECF
:1412FC00F991E9919991899129910991299018952A923A9254
:141310000A932A933A938A939A93EA93FA932FB62A920FB7E7
:141324002090D0073090D107321479F02091D0072F5F2F732F
:141338002093D00782ED97E0E22FFF27E80FF91F20802CB867
:14134C0001C055980FBF29902FBEF991E99199918991399159
:1413600029910991399029901895209012083090130832140B
:14137400D1F3009112080F5F0F7F0093120884E198E0E02F61
:14138800FF27E80FF91F008108954A935A934091D1074F5FDD
:14139C004F732090D0074215E1F382ED97E0E42FFF27E80FB3
:1413B000F91F00834093D107559A5991499108954A935A93C9
:1413C40020901208309013083214A1F00030010779F0409127
:1413D80012084F5F4F7F84E198E0E42FFF27E80FF91F2080A6
:1413EC003324F8013182208201E001C000275991499108951E
:1414000020901208209213080895AA921801232C33242092F7
:1414140098000093990088E980939A00AA24A0925609A09251
:141428005709A0921409A0921509A99008952A920A932A93C5
:14143C008A939A93EA93FA932FB62A924A935A930FB7209166
:141450009C00409157094F5F4F7F20905609421549F04093CD
:14146400570988E599E0E42FFF27E80FF91F20830FBF59918B
:14147800499129902FBEF991E991999189912991099129908B
:14148C0018952A923A920A932A933A938A939A93EA93FA939C
:1414A0002FB62A920FB72090140930901509321481F02091BE
:1414B40014092F5F2F732093140986E199E0E22FFF27E80FF9
:1414C800F91F208020929C0005C080919A008F7D80939A00E1
:1414DC000FBF29902FBEF991E9919991899139912991099122
:1414F00039902990189520905609309057093214D1F30091EF
:1415040056090F5F0F7F0093560988E599E0E02FFF27E80F74
:14151800F91F008108954A935A93409115094F5F4F732090B0
:14152C0014094215E1F386E199E0E42FFF27E80FF91F0083B8
:141540004093150980919A00806280939A005991499108950B
:141554004A935A9320905609309057093214A1F0003001077B
:1415680079F0409156094F5F4F7F88E599E0E42FFF27E80F44
:14157C00F91F20803324F8013182208201E001C0002759914B
:14159000499108952090560920925709089510939D0100933E
:1415A4009C010895AA9220909C0130909D01222011F4332078
:1415B80031F0C1018130E0E09E0729F009C00E94B5091127AC
:1415CC0007C00E947B0AA02E112702C000271127A990089520
:1415E000AA92A02E20909C0130909D01222011F4332031F087
:1415F400C1018130E0E09E0729F007C00A2D0E94C90903C0BD
:141608000A2D0E948F0A01E010E0A9900895AA92BA925801D4
:14161C0020909C0130909D01222011F4332031F0C1018130E1
:14163000E0E09E0731F00BC085010E94E009112708C08501BE
:141644000E94AA0AA02E112702C000271127B990A9900895F6
:141658001A930A930E9436282297222433243982288244270E
:14166C0068EE73E08E010E940B0B0030010739F41B01615048
:1416800070402220A9F7332099F78E010E940B0B5801003011
:14169400010711F402E03EC00E94D40A5801B982A8820B35D7
:1416A800E0E01E0709F032C068EE73E08E010E940B0B580115
:1416BC000030010739F45B0161507040AA20A1F7BB2091F733
:1416D0008E010E940B0B58010030010711F402E01BC00E94CA
:1416E400D40A5801B982A882C5010134E0E01E0781F00234CF
:1416F800E0E01E0761F00334E0E01E0741F00434E0E01E073E
:14170C0021F000C042E001C042E0042F22960E943D28229649
:1417200008950E941D28C22E58012197C88295010EE911E068
:141734000E945C0621960C9400280E9411270E9417282897A4
:14174800CE88DF8881E0888380E089838A838B8385E0A82EA2
:14175C00EE2415C0288039804A805B804AE050E060E070E0A2
:141770005A924A923A922A928A019B010E94CC270883198332
:141784002A833B83E3948E2D853040F349C0288039804A8098
:141798005B800A891B892C893D895A924A923A922A920E94BE
:1417AC003E270C831D832E833F83EA2DFF27EE0FFF1FEC0DD1
:1417C000FD1D2C803D8031822082288039804A805B800C81AA
:1417D4001D812E813F815A924A923A922A920E94CC272A885D
:1417E8003B884C885D88201A310A420A530A2A8A3B8A4C8A04
:1417FC005D8A4AE050E060E070E0088119812A813B817A9371
:141810006A935A934A930E943E27088319832A833B83AA9426
:141824008A2D8F3F09F0B3CF28960E940C28249608950E9423
:141838001D286801AA24F601A081B181CD90DC9081E08C150B
:14184C0010F403E00EC0C0925B0ACC2029F001E010E00E94A4
:14186000470904C007E110E00E9447090A2D0C9400281A93EA
:141874000A93AA92AA2420915B0A332709E013E00E94783320
:141888000A2DA990229608951A930A93AA922697AA248AE507
:14189C009AE59B838A8320905B0A33242C01420C531C209088
:1418B000B50A3324420C531C5D824C8282E090E099838883AB
:1418C4009E012E5F3F4F002711270E94F02882E090E099834F
:1418D80088839E012C5F3F4F02E010E00E94F02881E090E0DC
:1418EC00998388832BE53AE004E010E00E94F02881E090E038
:141900009983888325EB3AE005E010E00E94F0280A2D269600
:14191400A990229608951A930A930E9422282297AA24442709
:1419280055270DEF12E00E9478331BC007E010E09A010E9405
:14193C00BC2780EA91E0F801E80FF91F20803180398228821B
:141950008EE991E0F801E80FF91F2081318104EF12E00E94B9
:1419640078334F5F5F4F07E010E09A010E94BC2782EA91E094
:14197800F801E80FF91F2080318082E990E028163906A1F613
:14198C000A2D22960E942728229608951A930A93AA92AA24BE
:1419A0000E94F9160A2DA990229608951A930A93AA92AA2469
:1419B4002090DD0A3090DE0A20FE05C001EF12E00E947833CE
:1419C80004C00EEE12E00E9478330A2DA990229608950E94A5
:1419DC002C284427F801A081B1816D917C91613030F083E6C7
:1419F000861718F06093B10A01C043E0042F0C9431281A93D3
:141A04000A93AA92AA242091B10A33270AEE12E00E9478332A
:141A18000A2DA990229608951A930A93AA92AA242091B90A2D
:141A2C0033270AEE12E00E9478330A2DA990229608951A93A3
:141A40000A93AA922297AA242091DD0A3091DE0A04EE12E00D
:141A54000E9478334090A60A5090A70A2090A40A3090A50A53
:141A68004882598291010FED12E00E9478334090A20A50909C
:141A7C00A30A2090A00A3090A10A4882598291010FED12E0BF
:141A90000E9478332091B10A33270AEE12E00E947833209147
:141AA400DA0A33270AEE12E00E9478330A2D2296A9902296D9
:141AB80008950E94362858014427F501A081B1816D917C9165
:141ACC0080E0861708F04CC0663008F049C082E08093D80A17
:141AE0006093640A77276130E0E07E0789F06230E0E07E07CD
:141AF400B9F06330E0E07E07C9F06430E0E07E07D9F065306D
:141B0800E0E07E0701F129C081E08093B80A8093B90A80938A
:141B1C00B70A0E94B7201FC082E08093B80A8093B90A19C0B6
:141B300083E08093B80A8093B90A13C084E08093B80A809374
:141B4400B90A22242092B00A0AC085E08093B80A8093B90A3E
:141B580081E08093B70A0E94B7200E943D1E0E94421B01C00E
:141B6C0043E0042F0C943D280E942228580126974427F501A7
:141B8000A081B1812D903D904D905C9013972A823B824C82CA
:141B94005D8281E090E0A0E0B0E02A803B804C805D80281631
:141BA80039064A065B06E8F08FE392E4AFE0B0E0821593052B
:141BBC00A405B505A0F03092A50A2092A40A5092A70A4092EC
:141BD000A60A0E94421B88EC9AE0998388830A811B812C8169
:141BE4003D81ABDD01C043E0042F26960C9427280E942228F9
:141BF800580126974427F501A081B1812D903D904D905C90BC
:141C0C0013972A823B824C825D8281E090E0A0E0B0E02A8079
:141C20003B804C805D80281639064A065B06E8F08FE392E45E
:141C3400AFE0B0E082159305A405B505A0F03092A10A20923C
:141C4800A00A5092A30A4092A20A0E94421B8AEB9AE09983C7
:141C5C0088830A811B812C813D816BDD01C043E0042F2696BC
:141C70000C9427281A930A93AA922297AA244090A60A509004
:141C8400A70A2090A40A3090A50A4882598291010FED12E0A9
:141C98000E9478330A2D2296A990229608951A930A93AA92E8
:141CAC002297AA244090A20A5090A30A2090A00A3090A10ACF
:141CC0004882598291010FED12E00E9478330A2D2296A99076
:141CD400229608951A930A93AA92AA2403EC12E00E94783325
:141CE8000A2DA990229608950E94362858014427F501A08148
:141CFC00B1816D917C9160306707A9F06130E0E07E07A9F091
:141D10006230E0E07E07A9F06330E0E07E07A9F06430E0E08A
:141D24007E07A9F06530E0E07E07A1F016C001E00E940B13AB
:141D380013C000270E940B130FC001E00E940A180BC0002777
:141D4C000E940A1807C00E94891704C00E94F91601C043E05D
:141D6000042F0C943D281A930A93AA92AA240091670A1127A9
:141D7400005D1F4F0E94F00A0DE00E94F00A0091640A112734
:141D8800005D1F4F0E94F00A0DE00E94F00A0091610A112723
:141D9C00005D1F4F0E94F00A0DE00E94F00A00915E0A112712
:141DB000005D1F4F0E94F00A0DE00E94F00A0091B90A1127A3
:141DC400005D1F4F0E94F00A0DE00E94F00A0091D80A112770
:141DD800005D1F4F0E94F00A0DE00E94F00A0091D60A11275E
:141DEC00005D1F4F0E94F00A0DE00E94F00A00916B0A1127B5
:141E0000005D1F4F0E94F00A0DE00E94F00A0A2DA9902296B6
:141E140008950E94362858014427F501A081B1816D917C9105
:141E28006395613028F182E0861710F184E08093D80A6093B8
:141E3C00B70A77276130E0E07E0729F06230E0E07E0739F044
:141E50000EC081E080935E0A0E94B72008C082E080935E0AB6
:141E640001E00E94AD200E94B0200E943D1E0E94421B01C0EB
:141E780043E0042F0C943D281A930A93AA92AA242091B70A35
:141E8C003327215030400AEE12E00E9478330A2DA9902296A8
:141EA00008950E94362858014427F501A081B1816D917C9179
:141EB4006030E0F081E08617C8F06093B50A772760306707B6
:141EC80029F06130E0E07E0739F00BC0809162008D7F809391
:141EDC00620005C0809162008260809362000E943D1E01C043
:141EF00043E0042F0C943D281A930A93AA92AA242091B50ABF
:141F040033270AEE12E00E9478330A2DA990229608951A93C6
:141F18000A93AA92AA24839B05C001EF12E00E94783304C038
:141F2C000EEE12E00E9478330A2DA990229608951A930A9357
:141F4000AA92AA24809B05C00EEE12E00E94783304C001EFB4
:141F540012E00E9478330A2DA990229608951A930A93AA92EF
:141F68006A97AA248AE58E8B8F8B80E0888F898F2090B90AF2
:141F7C003324442455246E887F88888C998C620C731C841C46
:141F9000951C2090B70A332444245524620C731C841C951C95
:141FA4002090B10A332444245524620C731C841C951C409068
:141FB800A60A5090A70A2090A40A3090A50A620C731C841C6A
:141FCC00951C4090A20A5090A30A2090A00A3090A10A620C14
:141FE000731C841C951C2090B50A332444245524620C731C69
:141FF400841C951C6A8A7B8A8C8A9D8A84E090E09983888357
:142008009E012E5F3F4F04E210E00E94D52884E090E09983A5
:14201C0088839E01275F3F4F08E210E00E94D52884E090E0A5
:14203000998388839E01235F3F4F0CE210E00E94D52881E0E8
:1420440090E0998388839E012A5F3F4F00E310E00E94D528C9
:1420580081E090E0998388839E01295F3F4F01E310E00E9451
:14206C00D52881E090E0998388839E01285F3F4F02E310E0E2
:142080000E94D52881E090E0998388839E012F5E3F4F03E315
:1420940010E00E94D5282A803B804C805D806A887B888C8892
:1420A8009D886214730484049504B9F52E803090B90A3214CC
:1420BC0091F52F803090B70A321469F528843090B10A321449
:1420D00041F529843A844B845C848090A60A9090A70A60902B
:1420E400A40A7090A50A6214730484049504B9F42D843E845D
:1420F8004F8458888090A20A9090A30A6090A00A7090A10A53
:14210C00621473048404950431F429883090B50A321409F419
:1421200052C084E090E0998388839E012A5E3F4F00E210E017
:142134000E94F02884E090E0998388839E012E5E3F4F04E243
:1421480010E00E94F02884E090E09983888324EA3AE008E2CC
:14215C0010E00E94F02884E090E09983888320EA3AE00CE2B8
:1421700010E00E94F02881E090E09983888329EB3AE000E3A8
:1421840010E00E94F02881E090E09983888327EB3AE001E395
:1421980010E00E94F02881E090E09983888321EB3AE002E386
:1421AC0010E00E94F02881E090E09983888325EB3AE003E36D
:1421C00010E00E94F0280A2D6A96A990229608951A930A9352
:1421D4000E943628A997AA2422242C8284E090E099838883FA
:1421E8009E012B5F3F4F00E210E00E94D52884E090E09983CB
:1421FC0088839E012C5E3F4F04E210E00E94D52884E090E0C4
:14221000998388839E01245F3F4F08E210E00E94D52884E006
:1422240090E0998388839E01205F3F4F0CE210E00E94D528E6
:1422380081E090E0998388839E01275F3F4F00E310E00E9472
:14224C00D52881E090E0998388839E01265F3F4F01E310E003
:142260000E94D52881E090E0998388839E01255F3F4F02E33D
:1422740010E00E94D52881E090E0998388839E012C5F3F4F17
:1422880003E310E00E94D52829843324442455246D807E80FD
:14229C008F809884620C731C841C951C2A84332444245524CF
:1422B000620C731C841C951C2B84332444245524620C731CE8
:1422C400841C951C2C843D844E845F84620C731C841C951C41
:1422D800288839884A885B88620C731C841C951C2C8033247B
:1422EC0044245524620C731C841C951C688E798E8A8E9B8E71
:142300004AE55AE560E070E02D803E804F8058842416350640
:142314004606570609F08AC02C883D884E885F88688C798C9A
:142328008A8C9B8C621473048404950409F07CC08A85815041
:14233C008C8FCE014C969B838A83CE010296FE017D9602E03B
:1423500010E0FA93EA939A938A930E94A7288E01035E1F4F66
:1423640058DDCE010B969B838A83CE010296FE017F9602E038
:1423780010E0FA93EA939A938A930E94A7288E01015E1F4F40
:14238C0026DBCE0109969B838A83CE010296FE01B19602E014
:1423A00010E0FA93EA939A938A930E94A7288E010F5D1F4F0B
:1423B40082DBCE010C969B838A83CE010296FE01B39602E08B
:1423C80010E0FA93EA939A938A930E94A7288E010D5D1F4FE5
:1423DC00CBDBCE0140969B838A83CE010296FE01B59602E0E4
:1423F00010E0FA93EA939A938A930E94A7288E010B5D1F4FBF
:14240400F7DBCE0104969B838A83CE010296FE01B79602E0C9
:1424180010E0FA93EA939A938A930E94A7288E01095D1F4F98
:14242C003ADD08C003E912E00E94783309E612E00E94783364
:142440000A2DA9960E943D282296089500271A9A000001B129
:142454001127007710701595079515950795159507951595C9
:1424680007951A981B9A000081B18077082B1B980895AA9275
:14247C00CA92C02E8AE08093E30A05C0E1DFA02EC01609F076
:1424900004C02090E30A2220B9F70A2DC990A99008950A3045
:1424A400E0E01E070CF419C00E31E0E01E075CF48DE780936B
:1424B800E40A80E08093E50A8093E60A8093E70A0AC089E185
:1424CC008093E40A80E08093E50A8093E60A8093E70A0895F5
:1424E0001A930A9320908B0A222069F480E08093E40A809346
:1424F400E50A8093E60A8093E70A22242092B30A86C0409013
:14250800E60A5090E70A2090E40A3090E50A8894222032041D
:14251C004204520409F077C080918B0A803171F462D480EA83
:142530008093E40A86E88093E50A81E08093E60A80E080934F
:14254400E70A65C080918B0A8230B1F401E061D08AEF8093D2
:14255800E40A80E08093E50A8093E60A8093E70A8091B30A4A
:14256C008F5F8093B30A082F11270E9451124BC080918B0A78
:142580008430B1F4002747D08AEF8093E40A80E08093E50AD4
:142594008093E60A8093E70A8091B30A8F5F8093B30A082F69
:1425A80011270E94511231C080918B0A803461F4ACD48AEF49
:1425BC008093E40A80E08093E50A8093E60A8093E70A21C0C0
:1425D00080918B0A813069F401E01CD58AEF8093E40A80E097
:1425E4008093E50A8093E60A8093E70A10C080918B0A8032B2
:1425F80061F400270BD58AEF8093E40A80E08093E50A809384
:14260C00E60A8093E70A229608951A930A930E941728279788
:1426200081E0888380E089838A838B8381E090E09E838D83B1
:1426340000240C828091DD0A9091DE0A8270927080308907AB
:1426480009F0CEC30988002041F40FEF1FEF2D813E810E94F3
:14265C00BC271E830D832090D60AA22CC22C8091D80A813066
:1426700009F050C10988002051F188EC9AE0E22DFF27EE0F39
:14268400FF1FE80FF91F808191818930E0E09E07E1F40024EB
:1426980003940C8211C088EC9AE0EA2DFF27EE0FFF1FE80FFB
:1426AC00F91F808191818930E0E09E0719F000240C8234C022
:1426C0008A2D8F5FA82E85E08A1548F72DC00988002051F564
:1426D40088EC9AE0EA2DFF27EE0FFF1FE80FF91F208031804C
:1426E8002220F1F43320E1F4002403940C8211C088EC9AE087
:1426FC00EA2DFF27EE0FFF1FE80FF91F20803180222011F4CB
:14271000332019F000240C8207C08A2D8F5FE82EA82E85E0EA
:142724008A1540F70C80002061F02090D60A222009F4F3C24A
:14273800822D81508093D60A0E94FE1AECC288EC9AE0EC2CAC
:14274C00FF24EE0CFF1CE80EF91EF701208031800D801E80C0
:14276000200C311C31822082EC2DFF27EE0FFF1FE80FF91F2E
:142774002080318089E090E0821593050CF033C02DC088ECA8
:142788009AE0EC2DFF27EE0FFF1FE80FF91F2080318089E0A0
:14279C0090E082159305ECF488EC9AE0EC2DFF27EE0FFF1F62
:1427B000E80FF91F2224332431822082C394EC2CFF24EE0C88
:1427C400FF1CE80EF91EF701208031800D801E80200C311CEC
:1427D8003182208201C0C39485E08C1508F0CFCF42C088EC6E
:1427EC009AE0EC2DFF27EE0FFF1FE80FF91F80819181803033
:14280000E0E09E070CF033C02EC088EC9AE0EC2DFF27EE0F58
:14281400FF1FE80FF91F808191818030E0E09E07FCF488ECF7
:142828009AE0EC2DFF27EE0FFF1FE80FF91F89E090E09183CC
:14283C008083C39488EC9AE0EC2CFF24EE0CFF1CE80EF91EE3
:14285000F701208031800D801E80200C311C3182208201C071
:14286400C39485E08C1508F0CECFCC2480E08093A40A80934A
:14287800A50A8093A60A8093A70A43C088EC9AE0EC2DFF27E6
:14288C00EE0FFF1FE80FF91F00811181222717FD209533278F
:1428A00027FD3095288039804A805B805A924A923A922A92E5
:1428B4000E94CC274090A60A5090A70A2090A40A3090A50A9D
:1428C800200E311E421E531E3092A50A2092A40A5092A70A4A
:1428DC004092A60AC394288039804A805B804AE050E060E06F
:1428F00070E05A924A923A922A928A019B010E94CC270883ED
:1429040019832A833B8385E08C1508F0B9CF05C28091D80A78
:14291800833009F051C10988002059F18AEB9AE0EA2DFF27C6
:14292C00EE0FFF1FE80FF91F808191818930E0E09E07E9F45F
:14294000002403940C8211C08AEB9AE0EA2DFF27EE0FFF1F22
:14295400E80FF91F808191818930E0E09E0719F000240C8274
:1429680035C08A2D8F5FE82EA82E85E08A1540F72DC009881C
:14297C00002051F58AEB9AE0EA2DFF27EE0FFF1FE80FF91F8B
:14299000208031802220F1F43320E1F4002403940C8211C079
:1429A4008AEB9AE0EA2DFF27EE0FFF1FE80FF91F2080318078
:1429B800222011F4332019F000240C8207C08A2D8F5FE82E34
:1429CC00A82E85E08A1540F70C80002061F02090D60A222017
:1429E00009F49DC1822D81508093D60A0E94FE1A96C18AEB8F
:1429F4009AE0EC2CFF24EE0CFF1CE80EF91EF70120803180AF
:142A08000D801E80200C311C31822082EC2DFF27EE0FFF1F67
:142A1C00E80FF91F2080318089E090E0821593050CF033C04F
:142A30002DC08AEB9AE0EC2DFF27EE0FFF1FE80FF91F2080AD
:142A4400318089E090E082159305ECF48AEB9AE0EC2DFF27B7
:142A5800EE0FFF1FE80FF91F2224332431822082C394EC2CDF
:142A6C00FF24EE0CFF1CE80EF91EF701208031800D801E809D
:142A8000200C311C3182208201C0C39485E08C1508F0CFCFC0
:142A940042C08AEB9AE0EC2DFF27EE0FFF1FE80FF91F8081D3
:142AA80091818030E0E09E070CF033C02EC08AEB9AE0EC2D0E
:142ABC00FF27EE0FFF1FE80FF91F808191818030E0E09E078E
:142AD000FCF48AEB9AE0EC2DFF27EE0FFF1FE80FF91F89E041
:142AE40090E091838083C3948AEB9AE0EC2CFF24EE0CFF1CC1
:142AF800E80EF91EF701208031800D801E80200C311C31821D
:142B0C00208201C0C39485E08C1508F0CECFCC2480E08093FD
:142B2000A00A8093A10A8093A20A8093A30A43C08AEB9AE0C8
:142B3400EC2DFF27EE0FFF1FE80FF91F00811181222717FDB4
:142B48002095332727FD3095288039804A805B805A924A92B3
:142B5C003A922A920E94CC274090A20A5090A30A2090A00AE5
:142B70003090A10A200E311E421E531E3092A10A2092A00ACF
:142B84005092A30A4092A20AC394288039804A805B804AE0A9
:142B980050E060E070E05A924A923A922A928A019B010E9450
:142BAC00CC27088319832A833B8385E08C1508F0B9CFAFC09B
:142BC0008091D80A823009F06AC020906B0A222009F04DC0CC
:142BD4000FEF1FEF2D813E810E94BC271E830D832090B80A4C
:142BE80033240801200E311E2092B80A85E0821518F481E01F
:142BFC008093B80A8091B80A813018F485E08093B80AC090D6
:142C1000B80ADD24C6018130E0E09E0789F08230E0E09E0780
:142C240089F08330E0E09E0789F08430E0E09E0789F085304B
:142C3800E0E09E07A1F06FC081E08093640A6BC082E08093E1
:142C4C00640A67C083E08093640A63C084E08093640A2224AD
:142C60002092B00A5CC085E08093640A58C02090B10A332418
:142C74000D801E80200C311C2092B10A83E6821518F481E0CE
:142C88008093B10A8091B10A813008F044C083E68093B10ABA
:142C9C0040C08091D80A843009F03BC00FEF1FEF2D813E8110
:142CB0000E94BC271E830D832090B60A33240801200E311E0D
:142CC4002092B60A82E0821518F481E08093B60A8091B60A80
:142CD800813018F482E08093B60AA090B60ABB24C5018130B0
:142CEC00E0E09E0729F08230E0E09E0729F007C081E08093EB
:142D00005E0A03C082E080935E0A2090DD0A3090DE0A20FE5A
:142D140001C06DD022242092B00AA090D80ABB24C501813093
:142D2800E0E09E0769F08230E0E09E0769F08330E0E09E0751
:142D3C00C1F18430E0E09E07C1F14EC000E80E94F41A4AC056
:142D50002090B80A2092B90A0E94421B2090DD0A3090DE0A4A
:142D640020FE01C044D0A090B90A8A2D813011F0853019F44A
:142D780081E08093B70A8091B90A853009F097988091B90A8D
:142D8C00843039F0222420926B0A0FE80E94F41A23C080914E
:142DA0006B0A8130F9F40EE80E94F41A1BC000EC0E94F41AEF
:142DB40017C02090B60A2092B70A0E94421B0FEC0E94F41AA7
:142DC8002090DD0A3090DE0A20FE01C00ED08091B70A823077
:142DDC0019F401E00E94AD200E943D1E27960E940C2822963E
:142DF000089524972090DD0A3090DE0A20FC5BC0809B56C0D0
:142E040080916200816080936200C10181609093DE0A809330
:142E1800DD0A8091B70A813021F481E08093690A06C0222434
:142E2C002092690A81E08093680A2090DD0A3090DE0A26FE24
:142E400005C0979A00270E94AD2001C097988091B70A82307E
:142E540031F02090DD0A3090DE0A26FE02C00E94B020F89426
:142E680080E08093EC0A8093ED0A8093EE0A8093EF0A80E06C
:142E7C008093E80A8093E90A8093EA0A8093EB0A7894CE014D
:142E9000FE01329602E010E0FA93EA939A938A930E94A728D0
:142EA4008E010E5F1F4F0E94B10F2FC00E94DE1E2CC0F89449
:142EB80080E08093E80A8093E90A8093EA0A8093EB0A80E02C
:142ECC008093EC0A8093ED0A8093EE0A8093EF0A22242092D0
:142EE000DA0A2092D90A78942092690A8091DD0A9091DE0A33
:142EF4008E7F9093DE0A8093DD0A809162008E7F80936200C3
:142F080097980E94B720249608954A935A938091DD0A9091D3
:142F1C00DE0A827092708030890709F072C04091D80A55272B
:142F30004130E0E05E0769F04230E0E05E07B9F04330E0E02B
:142F44005E0761F04430E0E05E07E9F022C00FE80E94F41AC8
:142F580083E08093D80A1BC00FEC0E94F41A82E08093D80A30
:142F6C0014C000E80E94F41A2090640A822D813061F0853061
:142F800051F084E08093D80A06C000EC0E94F41A81E08093CD
:142F9400D80A0EE00E94F41A8091610A823069F12224209229
:142FA8006B0A4091D80A55274130E0E05E0769F04230E0E050
:142FBC005E07B9F04330E0E05E0761F04430E0E05E0799F0E8
:142FD0001EC005E80E94F41A82E08093D60A17C005EC0E94B3
:142FE400F41A82E08093D60A10C00FE80E94F41A0CC00FEC38
:142FF8000E94F41A08C02090DD0A3090DE0A21FE02C00E948B
:14300C00421B5991499108950E944428A02E2090610A822D4C
:14302000823019F4813009F452C02090B90A822D813011F049
:14303400853029F48091B80A843009F046C0AA2019F041E03C
:1430480050E002C04FEF5FEF6A014091D80A413011F04330F3
:14305C00B9F42090D60A33242C0C3D1C2092D60A85E08215AD
:1430700020F422242092D60A07C08091D60A803018F485E087
:143084008093D60A0E94FE1A8091D80A8230E9F48091B80A36
:143098008430C9F4AA2059F020906B0A222039F40EE80E9474
:1430AC00F41A81E080936B0A0CC0AA2051F420906B0A2220D7
:1430C00031F00FE80E94F41A222420926B0A0C944B284A93D7
:1430D4005A93442755272DE736E00DE61AE00E94FC2601E058
:1430E8007FD208E37DD20CE07BD206E079D220E80FE616E0EC
:1430FC000E94702220EC02E616E00E94702288EE93E0909362
:14311000E20A8093E10A02C00E942D1D2090E10A3090E20ACC
:143124002220C1F73320B1F719C086E990E09093E20A8093C8
:14313800E10A0E945E2207FDFCCF2090E10A3090E20A22201E
:14314C00B1F73320A1F78CE1809302C04F5F5F4F0E942D1D52
:143160004031E0E05E071CF301E03ED222242092670A81E0FB
:143174008093640A2092610A20925E0A2092650A282E209266
:14318800620A2090610A20925F0A20905E0A20925C0A80934E
:14319C00660A86E08093630A83E08093600A80935D0A81E00E
:1431B0008093AC0A80E08093AD0A8093AE0A8093AF0A81E020
:1431C4008093A80A80E08093A90A8093AA0A8093AB0A56D255
:1431D8000EE006D20FE804D25991499108954A935A93209075
:1431EC00630A3090640A3214A1F000E8F7D128E888E896E0B7
:14320000E091640AFF27EE0FFF1FE80FF91F008111810E94D6
:1432140070222090640A2092630A2090660A3090670A321440
:14322800A1F000E8DDD120E886E896E0E091670AFF27EE0F7A
:14323C00FF1FE80FF91F008111810E9470222090670A209237
:14325000660A20905D0A30905E0A3214A1F000E8C3D128EC54
:143264008AE996E0E0915E0AFF27EE0FFF1FE80FF91F0081C3
:1432780011810E94702220905E0A20925D0A2090600A309071
:14328C00610A3214A1F000E8A9D120EC84E996E0E091610ABF
:1432A000FF27EE0FFF1FE80FF91F008111810E9470222090D3
:1432B400610A2092600A4091D80A55274130E0E05E0701F1C8
:1432C8004230E0E05E0749F04330E0E05E07D1F04430E0E095
:1432DC005E0789F016C08091B90A843049F420906B0A2220FE
:1432F00011F084D10CC00FE877D109C00FE874D106C00FECA3
:1433040071D103C079D101C077D1599149910895289720908D
:14331800B90A822D813009F423C1853009F420C14090AE0A82
:14332C005090AF0A2090AC0A3090AD0A8090A60A9090A70A86
:143340006090A40A7090A50A621473048404950409F47AC0E7
:14335400830194010E94AA29180129010EEC10E00E94A82739
:143368003A932A931A930A93810192010E94CC290C831D83A2
:14337C002E833F832C803D804E805F800AEC10E00E94A8275D
:143390003A932A931A930A93810192010E94762B7CF42C80E1
:1433A4003D804E805F80288239824A825B8228E536E00CE886
:1433B8001AE00E9498332EC02C803D804E805F8006EC10E0B4
:1433CC000E94A8273A932A931A930A93810192010E94762B50
:1433E0007CF42C803D804E805F80288239824A825B822FE432
:1433F40036E00CE81AE00E9498330EC02C803D804E805F8070
:14340800288239824A825B822DE736E00CE81AE00E9498331D
:14341C0021E80CE81AE00E9470224090A60A5090A70A2090B0
:14343000A40A3090A50A3092AD0A2092AC0A5092AF0A40921D
:14344400AE0ADAD04090AA0A5090AB0A2090A80A3090A90A24
:143458008090A20A9090A30A6090A00A7090A10A62147304A5
:14346C008404950409F47AC0830194010E94AA291801290123
:143480000EEC10E00E94A8273A932A931A930A9381019201F4
:143494000E94CC290C831D832E833F832C803D804E805F80D5
:1434A8000AEC10E00E94A8273A932A931A930A9381019201D0
:1434BC000E94762B7CF42C803D804E805F80288239824A8202
:1434D0005B8228E536E00CE81AE00E9498332EC02C803D8036
:1434E4004E805F8006EC10E00E94A8273A932A931A930A9300
:1434F800810192010E94762B7CF42C803D804E805F80288238
:14350C0039824A825B822FE436E00CE81AE00E9498330EC0F5
:143520002C803D804E805F80288239824A825B822DE736E049
:143534000CE81AE00E94983321EC0CE81AE00E947022409029
:14354800A20A5090A30A2090A00A3090A10A3092A90A20924A
:14355C00A80A5092AB0A4092AA0A4AD08091B90A843021F0D9
:143570008091B80A8430B1F52090B00A3090B10A321421F4DA
:143584002090DA0A222061F12090DA0A222079F033243982BA
:1435980028822BE436E00CE81AE00E9498338091B10A8F5F3B
:1435AC008093B00A0FC02090B10A3324398228822BE436E023
:1435C0000CE81AE00E9498332090B10A2092B00A2DE80CE8BC
:1435D4001AE00E94702220906B0A222009F00CD0289608951E
:1435E800AA92A02E0E945E2207FDFCCFA09202C0A99008950A
:1435FC000E942C286091D60A772760306707A9F06130E0E06E
:143610007E07A1F06230E0E07E0799F06330E0E07E0791F0D7
:143624006430E0E07E0789F06530E0E07E0781F011C047E0FD
:1436380050E00EC046E050E00BC045E050E008C043E050E0EF
:14364C0005C042E050E002C041E050E08091D80A813029F47F
:143660008A0100581F4FC0DF0BC08091D80A833029F48A014D
:1436740000541F4FB7DF02C00EE8B4DF0C9431284A935A93DC
:143688004091B90A55274130E0E05E07A1F04230E0E05E0760
:14369C0011F14330E0E05E0709F454C04430E0E05E0709F4D9
:1436B00086C04530E0E05E0709F49AC0AEC022242092670AF8
:1436C40081E08093660A8093640A2092610A83E08093600A90
:1436D80020925E0A80935D0A9CC081E090E0A0E0B0E040903D
:1436EC00A60A5090A70A2090A40A3090A50A280E391E4A1EC7
:143700005B1E3092AD0A2092AC0A5092AF0A4092AE0A82E0D4
:143714008093640A81E090E0A0E0B0E04090A20A5090A30A36
:143728002090A00A3090A10A280E391E4A1E5B1E3092A90AE5
:14373C002092A80A5092AB0A4092AA0A222420925E0A65C073
:1437500081E090E0A0E0B0E04090A60A5090A70A2090A40A15
:143764003090A50A280E391E4A1E5B1E3092AD0A2092AC0A93
:143778005092AF0A4092AE0A83E08093640A81E090E0A0E0E3
:14378C00B0E04090A20A5090A30A2090A00A3090A10A280E95
:1437A000391E4A1E5B1E3092A90A2092A80A5092AB0A40929B
:1437B400AA0A222420925E0A2EC080E08093AC0A8093AD0A0C
:1437C8008093AE0A8093AF0A84E08093640A80E08093A80A4C
:1437DC008093A90A8093AA0A8093AB0A222420925E0A15C04F
:1437F00022242092670A81E08093660A85E08093640A86E02C
:143804008093630A2092610A83E08093600A20925E0A809306
:143818005D0A2090610A822D823011F0813019F42224209202
:14382C00610ADBDC71DD4091B70A55274130E0E05E0729F05B
:143840004230E0E05E0761F014C02090B90A822D813079F07C
:14385400853069F081E080935E0A09C04091B90A413029F08F
:14386800453019F082E080935E0AB9DC4FDD599149910895CF
:14387C00299722242C8233243E822D823B822A8282E090E083
:14389000998388839E012E5F3F4F002711270E94D52882E0E3
:1438A40090E0998388839E012B5F3F4F02E010E00E94D52851
:1438B80081E090E0998388839E012C5F3F4F04E010E00E94D6
:1438CC00D5288A819B818A35EAE59E07C9F42C8033242C01A4
:1438E000420C531C2D803E802414350479F42C8020925B0A0B
:1438F400222029F001E010E00E94470911C007E110E00E9457
:1439080047090CC007E110E00E94470903EF16E00E94783390
:14391C0000EC16E00E947833299608952497AA24BB2481E043
:143930008093B40A41E022242092B20A0E94270660D007E0F7
:143944000E94180699DF03EA16E00E947833CE01FE01329671
:1439580002E010E0FA93EA939A938A930E94A7288E010E5FC8
:14396C001F4F0E94E8100E94C32042C070D00E942612A02ED0
:1439800000938B0A002319F00E943D12A02E00918B0A0E9458
:1439940070120A2D0E9470120E94CD1F0E9433200E94C41D3C
:1439A8000E94F71E0E94F3180E948A1921E000EA16E00E94DF
:1439BC00910BA02ECA2C209085062220C9F02090DF0A309008
:1439D000E00A222099F4332089F4442329F008E00E94F41A42
:1439E400442704C00CE00E94F41A41E08AEF90E09093E00AED
:1439F8008093DF0ABDCF2496089580E880936C0085B7806CCD
:143A0C0085BF80916D00826080936D0080916A008C68809300
:143A20006A008AB7806C8ABF80E888BB222425BA88E083B93E
:143A34002092620080EB87BB8FEF84BB80E881BB8CE082B9B5
:143A48008FEF809361000E94E920789404D00C946918A8958F
:143A5C0008954A935A9322242092DA0A2092D90A80E080930B
:143A7000EC0A8093ED0A8093EE0A8093EF0A80E08093E80AC6
:143A84008093E90A8093EA0A8093EB0A8FE08093B10A84EF69
:143A98008093A40A81E08093A50A80E08093A60A8093A70A4F
:143AAC0084EF8093A00A81E08093A10A80E08093A20A809385
:143AC000A30A81E08093B90A8093B70A2092B50A282E2092C1
:143AD400B80A2090B70A2092B60A222433243092DE0A209240
:143AE800DD0A2092690A20926B0A80E08093E40A8093E50A34
:143AFC008093E60A8093E70A82E08093D80A8093D60A4427FA
:143B1000552720926A0A0EC01A014F5F5F4F88EC9AE0F101DA
:143B2400EE0FFF1FE80FF91F22243324318220824630E0E03B
:143B38005E0774F385E090E09093CD0A8093CC0A442755270E
:143B4C000EC01A014F5F5F4F8AEB9AE0F101EE0FFF1FE80F2D
:143B6000F91F22243324318220824630E0E05E0774F385E0E0
:143B740090E09093BF0A8093BE0A0E943D1E599149910895A8
:143B8800809946C08091B40A813009F041C022242092B40ADA
:143B9C008091DD0A9091DE0A82609093DE0A8093DD0A81604C
:143BB0009093DE0A8093DD0A80E08093E40A8093E50A809386
:143BC400E60A8093E70A0E94F9160CE00E94F41A52D02090DA
:143BD800DD0A3090DE0A31FC09C0222420925E0A82E080937F
:143BEC00610A83E08093600A8091DD0A9091DE0A8E7F909349
:143C0000DE0A8093DD0A8AEF90E09093E00A8093DF0A81E07B
:143C140080938506809B07C02090B40A222019F482E08093EA
:143C2800B40A2090DD0A3090DE0A20FC21C08091B40A82300D
:143C3C00E9F431FC09C02224209285060EE00E94F41A0E94DE
:143C5000421B06C0222420925E0A81E08093610A8091DD0A06
:143C64009091DE0A8D7F9093DE0A8093DD0A81E08093B40A00
:143C780008950091B90A11270130E0E01E0791F00230E0E086
:143C8C001E07E9F00330E0E01E0741F10430E0E01E0799F139
:143CA0000530E0E01E0709F43DC04AC08091DD0A9091DE0AF1
:143CB40083789093DE0A8093DD0A84609093DE0A8093DD0A13
:143CC8003BC08091DD0A9091DE0A83789093DE0A8093DD0AEC
:143CDC0088609093DE0A8093DD0A2CC08091DD0A9091DE0AFA
:143CF00083789093DE0A8093DD0A80619093DE0A8093DD0ADA
:143D04001DC08091DD0A9091DE0A83789093DE0A8093DD0ACD
:143D180080629093DE0A8093DD0A0EC08091DD0A9091DE0AE1
:143D2C0083789093DE0A8093DD0A80649093DE0A8093DD0A9A
:143D40000091B70A11270130E0E01E0729F00230E0E01E079F
:143D540059F013C08091DD0A9091DE0A8F779093DE0A80931A
:143D6800DD0A09C08091DD0A9091DE0A80689093DE0A809390
:143D7C00DD0A0091B50A11270030010729F00130E0E01E075D
:143D900059F013C08091DD0A9091DE0A9B7F9093DE0A8093CA
:143DA400DD0A09C08091DD0A9091DE0A94609093DE0A809348
:143DB800DD0A08958AEF90E09093E00A8093DF0A81E080930D
:143DCC0085062090DD0A3090DE0A31FC09C00CE00E94F41A87
:143DE00082E08093610A222420925E0A089520905A0A22209C
:143DF40019F1222420925A0A81E08093B20A8DE290E0909323
:143E0800E20A8093E10A2090DD0A3090DE0A31FE11C0222437
:143E1C00209285068091DD0A9091DE0A9D7F9093DE0A80931A
:143E3000DD0A0EE00E94F41A0E94421B2090590A2220D9F0DC
:143E440022242092590A2090E10A3090E20A222011F433202E
:143E580081F08091B20A813061F4839907C0222433243092D0
:143E6C00E20A2092E10A03C022242092B20A2090580A2220EE
:143E800091F022242092580A2090DD0A3090DE0A31FC09C01E
:143E9400222433243092E20A2092E10A81E08093B20A209052
:143EA800B20A222009F474C02090E10A3090E20A2220B1F5A8
:143EBC003320A1F58091B20A813081F5839929C082E080939B
:143ED000B20A84E690E09093E20A8093E10A8091DD0A909122
:143EE400DE0A92609093DE0A8093DD0A0CE00E94F41AC1DEB0
:143EF800222420925E0A81E08093610A83E08093600A8AEF1E
:143F0C0090E09093E00A8093DF0A81E08093850605C022241E
:143F20002092B20A0E94C3202090E10A3090E20A222091F58B
:143F3400332081F58091B20A823061F5839B24C02090DD0A42
:143F48003090DE0A21FC09C02224209285060EE00E94F41AB6
:143F5C000E94421B06C082E08093610A222420925E0A80913B
:143F7000DD0A9091DE0A9D7F9093DE0A8093DD0A2224209234
:143F8400B20A0E94C32006C084E690E09093E20A8093E10A3B
:143F980008952090DD0A3090DE0A20FE5FC02090690A222097
:143FAC0009F45AC02090DD0A3090DE0A26FC54C0222420927D
:143FC000690A8091B90A843029F42090B10A2092DA0A03C011
:143FD40081E08093DA0A8091D80A833031F12090DD0A309062
:143FE800DE0A22FC1CC0F8944090A60A5090A70A2090A40AE8
:143FFC003090A50A3092ED0A2092EC0A5092EF0A4092EE0A3C
:1440100080E08093E80A8093E90A8093EA0A8093EB0A789416
:144024001FC081E08093D90A1BC0F8944090A20A5090A30AE2
:144038002090A00A3090A10A3092E90A2092E80A5092EB0A7F
:14404C004092EA0A80E08093EC0A8093ED0A8093EE0A809309
:14406000EF0A789408952090DD0A3090DE0A20FE11C022FC5E
:144074000FC026FC0DC02090DA0A222071F42090DD0A3090E8
:14408800DE0A27FC08C00E94F91605C0F89422242092DA0A73
:14409C00789408950A921A922A923A924A925A926A927A92C7
:1440B0008A929A920A931A932A933A938A939A93AA93BA930C
:1440C400EA93FA930FB60A92809B07C02090680A222019F02E
:1440D80081E08093690A2090F00A222009F022C0819B11C039
:1440EC0048D058D089B78D7F89BF80916A008B7F80936A00EA
:1441000088B7826088BF89B7826089BF0FC033D089B78D7FBB
:1441140089BF80916A00846080936A0088B7826088BF89B7CB
:14412800826089BF09900FBEF991E991B991A9919991899127
:14413C003991299119910991999089907990699059904990A1
:14415000399029901990099018950093F00A089588B782609F
:1441640088BF89B7826089BF089589B78D7F89BF089581E067
:1441780080935A0A089581E08093590A089529B621FE03C0EA
:14418C00B49B04C006C0819B01C003C089B7886089BF089599
:1441A00089B7877F89BF08952A928A932FB62A9229B621FE68
:1441B40003C0819B04C006C0B49B01C003C081E08093580AE5
:1441C80029902FBE8991299018958BE083BF83E781BF82E004
:1441DC0087BF08950A921A922A923A924A925A926A927A924C
:1441F0008A929A920A931A932A933A938A939A93AA93BA93CB
:14420400EA93FA930FB60A92C59A0000C5982090D90A2220AA
:14421800E1F020908F07222009F090C0C49A8091DD0A909179
:14422C00DE0A91609093DE0A8093DD0A809162008460809336
:14424000620081E080938F070E94BF200E94D02079C04090E2
:14425400EE0A5090EF0A2090EC0A3090ED0A88942220320494
:144268004204520499F120908F072220B1F4C49A8091DD0A99
:14427C009091DE0A91609093DE0A8093DD0A809162008460D8
:144290008093620081E080938F070E94BF200E94D02081E027
:1442A40090E0A0E0B0E04090EE0A5090EF0A2090EC0A30907F
:1442B800ED0A281A390A4A0A5B0A3092ED0A2092EC0A50927A
:1442CC00EF0A4092EE0A38C020908F072220A1F1C49880919C
:1442E000DD0A9091DE0A9E7F9093DE0A8093DD0A8091620045
:1442F4008B7F80936200222420928F070E94BB208091B90A58
:14430800823041F02090DA0A222021F0822D81508093DA0A60
:14431C002090DA0A222081F04090A20A5090A30A2090A00AE3
:144330003090A10A3092E90A2092E80A5092EB0A4092EA0A18
:144344004090EA0A5090EB0A2090E80A3090E90A8894222019
:1443580032044204520489F081E090E0A0E0B0E0281A390AA0
:14436C004A0A5B0A3092E90A2092E80A5092EB0A4092EA0A8E
:1443800044C04090EE0A5090EF0A2090EC0A3090ED0A88940B
:144394002220320442045204B1F52090DA0A222091F1209053
:1443A8008F07222071F5C49A8091DD0A9091DE0A9160909350
:1443BC00DE0A8093DD0A8091620084608093620081E090E06E
:1443D000A0E0B0E04090A60A5090A70A2090A40A3090A50AEB
:1443E400281A390A4A0A5B0A3092ED0A2092EC0A5092EF0A4B
:1443F8004092EE0A81E080938F070E94BF200E94D0204090FA
:14440C00E60A5090E70A2090E40A3090E50A889422203204FA
:144420004204520481F081E090E0A0E0B0E0281A390A4A0AC1
:144434005B0A3092E50A2092E40A5092E70A4092E60A209079
:14444800E30A222021F0822D81508093E30A2090E10A309045
:14445C00E20A222011F4332031F0C10101979093E20A809329
:14447000E10A2090DF0A3090E00A222011F4332031F0C1018D
:1444840001979093E00A8093DF0A09900FBEF991E991B991CF
:14449800A9919991899139912991199109919990899079907F
:1444AC0069905990499039902990199009901895009102C07D
:1444C0000895AA92CA92C22EA02E0C2D0E94F41AF5DF07FD34
:1444D400FDCFA09203C0C990A99008950E942228A22EA8017F
:1444E80007C02A2DFA010081E8DF4F5F5F4FA394FA01208031
:1444FC002220A9F70C9427280E9411270E9417286C970024F9
:1445100011241F8A0E8A56C4E8A5F9A58081853259F000815A
:14452400EEA1FFA10E9464288E899F8901969F8B8E8B41C408
:14453800002411241D8A0C8A8FEF9FEF998F888FAA24BB24E1
:14454C0041EF5AE060E288A599A5019699A788A7CC24DD244D
:14456000E8A5F9A5E080FF24C7018032E0E09E0719F18332FB
:14457400E0E09E0791F08032E0E09E0724F1C7018B32E0E0DC
:144588009E0789F08D32E0E09E0749F08033E0E09E0799F003
:14459C0016C0C50181605C0115C0C50184605C0111C0C501BE
:1445B00088605C016BE20CC0C50188605C0160E207C0C501BF
:1445C40080615C0103C081E090E06C01CC2011F4DD2009F0BD
:1445D80006C088A599A5019699A788A7BDCFE8A5F9A5008160
:1445EC0011270E942A3300300107B9F008A519A50E94A12BCA
:144600001D8B0C8B05C088A599A5019699A788A7E8A5F9A506
:14461400008111270E942A3368010030010789F715C0E8A557
:14462800F9A580818A3281F48AA59BA502969BA78AA7FC0137
:14463C003297208031803D8A2C8A88A599A5019699A788A762
:14465000E8A5F9A580818E3209F03AC0CF01019699A788A7A1
:14466400FC01008111270E942A33680100300107C1F008A58E
:1446780019A50E94A12B6801D98EC88E05C088A599A5019615
:14468C0099A788A7E8A5F9A5008111270E942A33680100302F
:1446A000010789F715C0E8A5F9A580818A3281F48AA59BA5DD
:1446B40002969BA78AA7FC01329720803180398E288E88A526
:1446C80099A5019699A788A7E8A5F9A580818C3639F4CF01AF
:1446DC00019699A788A7C50182605C01E8A5F9A5C080DD2453
:1446F000C6018335E0E09E0709F48AC183E58C159D0564F08B
:14470400C6018534E0E09E0709F407C38734E0E09E0709F4D8
:144718000BC343C0C6018835E0E09E0709F47EC08835E0E01B
:14472C009E070CF438C0C6018336E0E09E0709F445C184363A
:14474000E0E09E0709F43AC08536E0E09E0709F4E3C286368B
:14475400E0E09E0709F4E4C28736E0E09E0709F4E2C28936C7
:14476800E0E09E0739F18F36E0E09E0709F456C08037E0E0FA
:14477C009E0709F451C08337E0E09E0709F400C28537E0E01C
:144790009E0709F447C08837E0E09E0709F442C000C0E8A5FC
:1447A400F9A50081EEA1FFA10E9464288E899F8901969F8B85
:1447B8008E8BFFC2A1FE1EC08AA59BA504969BA78AA7FC011D
:1447CC00349720803180428053802C863D864E865F868AE090
:1447E00090E09B838A832C843D844E845F84488259829101CD
:1447F4008A010E94522CC1C08AA59BA502969BA78AA7FC010E
:144808003297208031803B8E2A8E8AE090E09983888391016E
:14481C008A010E94E72BADC0A1FE10C08AA59BA504969BA722
:144830008AA7FC01349720803180428053802C863D864E864C
:144844005F860BC08AA59BA502969BA78AA7FC0132972080D0
:1448580031803B8E2A8EE8A5F9A580818537D9F4A1FE0FC0F7
:14486C008AE090E09B838A832C843D844E845F844882598268
:1448800091018A010E94A82F7AC08AE090E0998388832A8D9C
:144894003B8D8A010E940F3070C0E8A5F9A580818F3609F5BD
:1448A800A0FE04C080E3FA018193AF01A1FE0FC088E090E032
:1448BC009B838A832C843D844E845F844882598291018A01D5
:1448D0000E94A82F54C088E090E0998388832A8D3B8D8A013E
:1448E4000E940F304AC0E8A5F9A58081803739F480E3FA0167
:1448F800819388E78193AF010CC0A0FE0AC080E3FA018193BF
:14490C00AF01E8A5F9A52080FA012192AF01A1FE0FC080E1EF
:1449200090E09B838A832C843D844E845F844882598291018B
:144934008A010E94A82F09C080E190E0998388832A8D3B8D2B
:144948008A010E940F30E8A5F9A58081883599F481EF9AE08F
:14495C007C010BC0F701008111270E9452336801F701C08284
:14497000C70101967C01F7012080222089F781EF9AE07C0196
:14498400888D998D8F3FEFEF9E0721F400241124198E088EE8
:14499800088C198C002019F4112009F404C101EF1AE00E9426
:1449AC0005276801DB8ECA8E088C198C0C141D040CF0F7C074
:1449C0000601198E088EF3C08AA59BA502969BA78AA7FC0175
:1449D4003297208031802A8681E090E00C881D8880159105D0
:1449E80044F4198E088E22242B86CE010A967C01DAC00A853A
:1449FC00EEA1FFA10E9464288E899F8901969F8B8E8BD5C19B
:144A10008AA59BA502969BA78AA7FC013297C080D180888DAC
:144A2400998D8F3FEFEF9E0721F400241124198E088E0C88C8
:144A38001D88002011F4112051F086010E94942BA8012C88E9
:144A4C003D88201A310A3D8A2C8A088C198C002041F41120E0
:144A600031F486010E94942BA801598F488F0C881D88002074
:144A740011F4112031F0A3FE04C0C00101979D8B8C8BA4FE38
:144A880026C0A3FE0AC0062FEEA1FFA10E9464288E899F89F8
:144A9C0001969F8B8E8BA2FC4CC00FC000E3EEA1FFA10E94FF
:144AB00064288E899F8901969F8B8E8B8C899D8901979D8B52
:144AC4008C8B222433240C881D882014310454F334C0A2FCAF
:144AD80017C00FC000E2EEA1FFA10E9464288E899F8901960F
:144AEC009F8B8E8B8C899D8901979D8B8C8B222433240C8830
:144B00001D882014310454F3A3FE19C0062FEEA1FFA10E94CC
:144B140064288E899F8901969F8B8E8B0EC0F6010691EEA1FD
:144B2800FFA10E9464288E899F8901969F8B8E8BC601019634
:144B3C006C01F6012690222049F0488D598DCA010197998F8A
:144B5000888F4030450729F7A2FE2FC10FC000E2EEA1FFA1EE
:144B64000E9464288E899F8901969F8B8E8B8C899D89019723
:144B78009D8B8C8B222433240C881D882014310454F317C18C
:144B8C008AA59BA502969BA78AA7FC013297E080F180EE20F6
:144BA00031F4FF2021F482ED90E06C013ACF888D998D8F3F4A
:144BB400EFEF9E0721F400241124198E088E0C881D88002066
:144BC80011F4112051F087010E94052768012C883D88201AF0
:144BDC00310A3D8A2C8A088C198C002041F4112031F48701A1
:144BF0000E9405276801D98EC88E0C881D88002011F411202E
:144C040031F0A3FE04C0C00101979D8B8C8BA4FE26C0A3FE55
:144C18000AC0062FEEA1FFA10E9464288E899F8901969F8B2C
:144C2C008E8BA2FC4CC00FC000E3EEA1FFA10E9464288E898B
:144C40009F8901969F8B8E8B8C899D8901979D8B8C8B222406
:144C540033240C881D882014310454F334C0A2FC17C00FC0D4
:144C680000E2EEA1FFA10E9464288E899F8901969F8B8E8BE0
:144C7C008C899D8901979D8B8C8B222433240C881D88201408
:144C9000310454F3A3FE19C0062FEEA1FFA10E9464288E8971
:144CA4009F8901969F8B8E8B0EC0F7010081EEA1FFA10E94E2
:144CB80064288E899F8901969F8B8E8BC70101967C01F7016F
:144CCC002080222049F0688D798DCB010197998F888F60308B
:144CE000670729F7A2FE69C00FC000E2EEA1FFA10E9464285B
:144CF4008E899F8901969F8B8E8B8C899D8901979D8B8C8B81
:144D0800222433240C881D882014310454F351C061E070E06F
:144D1C000BC062E070E008C06627772705C063E070E002C019
:144D300064E070E08AA59BA504969BA78AA7FC0134972080F7
:144D4400318042805380288A398A4A8A5B8A888D998D8F3FDE
:144D5800EFEF9E0721F486E090E0998F888F088C198C1986C2
:144D6C0008860C881D881F820E82BD82AC82288839884A888B
:144D80005B88288239824A825B829B0101EF1AE00E94DC33F7
:144D9400B8017B010CC0F70101917F01EEA1FFA10E946428A3
:144DA8008E899F8901969F8B8E8BF7012080222081F788A55F
:144DBC0099A5019699A788A7E8A5F9A52080222009F0A4CB2A
:144DD0000E891F896C960E940C2824960895E02FF12FA22F61
:144DE400B32F01911D91011B19F41123D1F70027110B089594
:144DF800A02FB12FE22FF32F01900D920020E1F70895E02FF1
:144E0C00F12FAA27BB270190002011F01196FBCF0A2F1B2F19
:144E200008953A932A931A930A9308950F920990002031F0F5
:144E340035952795179507950A94F8CF0F900895689401C03E
:144E4800E894EA92FA928A93EE24FF2480E1000F111FEE1CD6
:144E5C00FF1CE216F30618F0E21AF30A03958A95A1F716F4DC
:144E70000E2D1F2D8991F990E9900895E89401C0689430D0B5
:144E8400CC2409C0E89401C068942AD037FD0E946D28B7FD0F
:144E980052D0772488249924AA24BB2442D0C1F045D0B1F0BA
:144EAC00E8E2000F111F221F331F771C881C991CAA1CBB1CCD
:144EC00088169906AA06BB0628F0881A990AAA0ABB0A0395C2
:144ED400EA9559F726F4082D192D2A2D3B2D13C07A928A92AC
:144EE8009A92AA92BA92CA92EA938A939A93AA93BA938B8545
:144EFC009C85AD85BE85C32E0EF0CB260895C7FC0E946D2895
:144F1000B991A99199918991E991C990B990A990999089902E
:144F2400799024960895E02FE12BE22BE32B0895E82FE92B1B
:144F3800EA2BEB2B089580959095A095B0958F5F9F4FAF4F0F
:144F4C00BF4F0895EA93FA930A92E02FF12FD895002D319670
:144F6000D895102D3196D895202D3196D895302D0990F9915E
:144F7400E99108950A921A928A939A93029FC001129F900DD0
:144F8800039F900D8C01999189911990099008950E947628E6
:144F9C007A920E948F2859F177240E94952819F48C019D0120
:144FB00024C00A921A92089FB02CA12C289F902C812C189F8A
:144FC400A00C911C871C099FA00C911C871C199F900C811C48
:144FD8000A9F900C811C389F800C299F800C1A9F800C0B9F3D
:144FEC00800C199009900B2D1A2D292D382D79900C94842854
:14500000A990B990C990D9900895A990B990C990D990E990FE
:14501400F9900895A990B990C990D990E990F9904991599158
:145028006991799108957A936A935A934A93FA92EA92DA928B
:14503C00CA92BA92AA9208955A934A93BA92AA920895A990B7
:14505000B9904991599108957A936A935A934A930895499157
:1450640059916991799108957A936A935A934A93BA92AA9251
:145078000895A990B990499159916991799108955A934A93D6
:14508C00DA92CA92BA92AA920895A990B990C990D990499105
:1450A000599108957A936A935A934A93DA92CA92BA92AA9251
:1450B4000895A990B990C990D99049915991699179910895A2
:1450C8000A92D8950A923196D895F02DE99109900994009599
:1450DC001095209530950F5F1F4F2F4F3F4F08958A929A92D4
:1450F000AA92BA92EA938A939A93AA93BA9389859A85AB8576
:14510400BC850895B991A99199918991E991B990A9909990CC
:14511800899024960895EE27E02BE12BE22BE32B0895EE271A
:14512C00E82BE92BEA2BEB2B08950F920990002031F0000FF6
:14514000111F221F331F0A94F8CF0F900895AA93BA93EA93F0
:14515400FA930A92AF81B885ED81FE810030010729F00190E2
:145168000D9201501040F8CF0990F991E991B991A991249651
:14517C000895E199FECF1FBB0EBBE09A0DB30895AA92E1990B
:14519000FECF1FBB0EBB2DBBAFB6F894E29AE19AAFBE002737
:1451A4001127A99008950E9452286901B801A884B984A6019A
:1451B80009C08B010E94BF28FA0100836F5F7F4F4F5F5F4F8F
:1451CC001501C10101975C01222089F7332079F70C945B285A
:1451E0000E9452286901B801A884B984A60109C0FA01208107
:1451F4008B010E94C6286F5F7F4F4F5F5F4F1501C101019723
:145208005C01222089F7332079F70C945B28689401C0E89454
:14521C000E94CB2A0E945D2A09F448C0E62CD52CC42CB32ED5
:14523000A22E912E802E00811181228133810E945D2A09F49D
:1452440044C0842D952D8C199D09B9F072F4909580950196B4
:145258004C2C5D2C8831B8F535952795179507950197D1F7AD
:14526C0008C0883118F5B594A794979487940197D1F76624EC
:145280002EF0080D191D2A1D3B1D09C0801A910AA20AB30AAB
:14529400082D192D2A2D3B2D332322F40E946D2880E8682E2B
:1452A8000E94862A02C00E94BB2A0E94DA2A08950081118101
:1452BC0022813381C6F70E94652AA9F380E83827F2CF082D40
:1452D000192D2A2D3B2D4C2C5D2C6E2C33233AF70E946D286C
:1452E40080E8682EE2CFFA93EA93EA81FB810E940D29E991C4
:1452F800F99122960895FA93EA93EC2FFD2F32960E940D29D2
:14530C00E991F99124960895FA93EA93EA81FB810E940B296B
:14532000E991F99122960895FA93EA93EC2FFD2F32960E9465
:145334000B29E991F99124960895689401C0E89422273327FA
:1453480046F017FD209517FD309503C0689401C0E8944A92A1
:14535C005A926A928A9387E1482E5524662436F0332322F4C5
:145370000E946D2880E8682E0E94862A8991699059904990CD
:145384000895FA93EA93EA81FB8127D0E991F9912296089537
:14539800FA93EA93EC2FFD2F32961DD0E991F99124960895A0
:1453AC00FA93EA93EA81FB8114D0E991F991398328831A9300
:1453C0000A930895FA93EA93EC2FFD2F329607D0E991F991AB
:1453D4003B832A831983088308950A921A922A923A920E9424
:1453E800CB2A3A932A931A930A9300811181228133810E94DC
:1453FC006D2A09F457C0E62CD52CC42CB32EA22E912E802ED1
:1454100009911991299139910E946D2AA1F16E244C185D089A
:1454240080E8481653060CF033C081E848168FEF58060CF4C3
:1454380036C080E23324232E122E012E302F222711270027EA
:14544C0026941794079437952795000F111F221F331F001CD6
:14546000111C221C331C28F0081819082A083B0804C0080CD8
:14547400191C2A1C3B1C0AF001608A9551F70E94862A0E949C
:14548800DA2A399029901990099008950FEF102F2FE73FE732
:14549C00662099F30E946D28F0CF0027102F202F302FEBCF26
:1454B0000991199129913991EDCF0FD029F0662011F00E9443
:1454C4006D2898940895002329F4112319F4222309F433235D
:1454D8000895F7DF99F08A93632E80E86822220F331F432E30
:1454EC008FE7481A55248827580A269530E8232B33278991B5
:14550000989408954424552466240895DEDF09F40895AA9332
:14551400BA93D2019A938A938EE790E0332349F0369527951E
:1455280017950795A817B907CCF41196F5CF809590950196AC
:14553C002223BAF0000F111F221FA817B90714F01197F6CFFC
:145550000027112722273327899199912D01B991A9910895B2
:1455640033270FEF102F2FE7322F899199912D0102C0AA93B4
:14557800BA93A7DF49F0D201A158BF4F2D01342D220F3695AE
:14558C0027953629B991A99108954A925A926A927A928A92E3
:1455A0009A92AA92BA92CA92DA92EA92FA928A939A9308958C
:1455B40099918991F990E990D990C990B990A9909990899017
:1455C800799069905990499008950E94CB2AAA93BA930E94AB
:1455DC006D2AE1F1E62CD52CC42CB32EA22E912E802E0081B0
:1455F0001181228133810E946D2A71F16E244C0C5D1C80E858
:145604004816530664F581E848168FEF58066CF1A29EB12D64
:14561800A02D919E912D802DA09E800D911DA31FB31F829EEA
:14562C00800D911DA31FB31F929E900DA11DB31FA19E900D62
:14564000A11DB31F2B2F1A2F092F880F001F111F221F331F72
:145654000E94862AB991A9910E94DA2A08950FEF102F2FE7D6
:145668008FE7482EF5CF0027102F202F302FF0CFFA93EA93A1
:14567C00EA81FB810E94E92AE991F99122960895FA93EA931B
:14569000EC2FFD2F32960E94E92AE991F99124960895FA935A
:1456A400EA93EA81FB810E94E92AE991F991398328831A93C1
:1456B8000A9308950E940B2933233AF00E94652A11F001E03B
:1456CC000895002708950FEF0895FA93EA93EA81FB810E943B
:1456E0005E2BE991F991229600230895FA93EA93EC2FFD2F60
:1456F40032960E945E2BE991F9912496002308950E94652A00
:1457080021F00F9300E830270F910895A02FB12FE22FF32F7C
:14571C00C89531960D920020D9F70895E02FF12FAA27BB2747
:14573000C895002019F031961196FACF0A2F1B2F08950E94E6
:145744003628580103C0C50101965C01F501008111270E94CC
:145758003E3300300107A9F766277727F50180818D3229F4F6
:14576C0061E0CF0101965C0107C0F50180818B3219F4CF01CC
:1457800001965C01442755270EC00AE010E09A010E94BC2772
:14579400A801F50121905F013324420D531D40535040F50122
:1457A800008111270E942A330030010751F76030670731F096
:1457BC008A01009510950F5F1F4F01C08A010C943D280E9445
:1457D00011270E941728A901EE84FF845A01AA2051F4BB20C8
:1457E40041F480E3EA85FB858083222421828F0153C040302B
:1457F800E0E05E076CF4C7018A30E0E09E0741F4CC24C394B5
:14580C00C5018095909501965C0101C0CC246A857B8597015C
:1458200085010E942227A80189E090E08017910734F0CA0163
:14583400C096FB018193BF0106C0CA01895A9F4FFB018193C8
:14584800BF01970185010E9424275801AA2019F7BB2009F773
:14585C00CC2021F08DE2FB018193BF012B0161507040222429
:14587000F2012082AA84BB840CC0F501C080FB012080F5018E
:1458840021925F011B0161507040F101C082A616B70688F358
:145898000A851B850E940C28249608950E9411270E941728E5
:1458AC002497288839884A885B88288239824A825B82288849
:1458C00039884A885B888894222032044204520441F480E396
:1458D400EE85FF858083222421828F0194C040E050E060E069
:1458E80070E0288839884A885B882416350646065706ECF438
:1458FC008C899D898A30A0E09A07B9F4AA24A39441E050E07F
:1459100060E070E0288039804A805B802094309440945094BD
:14592400240E351E461E571E288239824A825B8201C0AA2474
:14593800CE84DF842C883D88442437FC4094552447FC50941E
:14594C00088119812A813B815A924A923A922A920E94402764
:14596000780189E090E08017910734F0C701C096F601819365
:145974006F0106C0C701895A9F4FF60181936F012C883D885C
:14598800442437FC4094552447FC5094088119812A813B8172
:14599C005A924A923A922A920E943E27088319832A833B830E
:1459B000288039804A805B808894222032044204520409F0B4
:1459C400BBCFAA2021F08DE2F60181936F012601C2010197FE
:1459D8006C012224F2012082EE84FF840DC0F701A080F601A2
:1459EC002080F70121927F011601C10101976C01F101A082EA
:145A0000EC14FD0480F30E851F8524960E940C282496089500
:145A14000E9411270E941B28609780E0888389838A838B8336
:145A280005C08E899F8901969F8B8E8BEE89FF8900811127D4
:145A3C000E943E330030010791F7EE89FF892080222079F039
:145A50000A8C1B8C002011F41120C9F081E090E080159105FA
:145A640024F484E28015910584F4088C198C002011F411207E
:145A780029F0F0010E881F881182008200E010E020E030E0DE
:145A8C002CC1002411241D860C86EE89FF8980818D3249F48F
:145AA000CF0101969F8B8E8B81E090E09D878C8709C0EE8900
:145AB400FF8980818B3221F4CF0101969F8B8E8BEE89FF89DA
:145AC80080818033D1F421803324822D883511F0883799F4A0
:145ADC008A8D9B8D8031E0E09E0721F00C018030890749F4C6
:145AF00080E190E09B8F8A8F8E899F8902969F8B8E8B0A8CDE
:145B04001B8C002081F4112071F4EE89FF898081803321F4F3
:145B180088E090E05C0103C08AE090E05C01BB8EAA8E8A8DB2
:145B2C009B8D8A30E0E09E0724F089E390E05C0105C08A8DF5
:145B40009B8D0197C0965C0165018AE090E00A8C1B8C8015CC
:145B540091050CF098C0C0010B978F599F4F9F878E8791C08E
:145B6800EE89FF89008111270E942A3358010030010761F090
:145B7C00EE89FF8920803324C214D3042CF080819927C0973E
:145B90007C0120C08AE090E00A8C1B8C801591050CF079C02D
:145BA400EE89FF89008111270E94653358017501C50101362F
:145BB800E0E01E070CF46BC00E841F84001611060CF465C042
:145BCC00815690400A967C01288039804A805B802C823D828E
:145BE0004E825F822A8C3B8C442437FC4094552447FC509474
:145BF400088119812A813B815A924A923A922A920E94CC272E
:145C0800180129013701882477FC8094992487FC9094260C44
:145C1C00371C481C591C288239824A825B822C803D804E8003
:145C30005F80688079808A809B806214730484049504F4F485
:145C440082E090E090931C0B80931B0B0C841D84002011F4A1
:145C5800112039F080E0888789878A8780E88B8706C08FEF90
:145C6C00888789878A878FE78B87088519852A853B8533C0DF
:145C80008E899F8901969F8B8E8BEE89FF892080222009F01D
:145C940069CF088C198C002011F4112029F0F0010E881F88EE
:145CA800118200820C841D84002011F4112059F008811981E0
:145CBC002A813B810E946D28088719872A873B8708C0288024
:145CD00039804A805B80288639864A865B86088519852A856A
:145CE4003B8560960E940528249608950E9411270E941B2811
:145CF8002A9780E0888389838A838B8305C0888999890196B6
:145D0C00998B888BE889F989008111270E943E330030010755
:145D200091F7E889F9892080222079F00C881D88002011F44B
:145D34001120C9F081E090E08015910524F484E280159105CC
:145D480084F40A881B88002011F4112029F0F0010888198809
:145D5C001182008200E010E020E030E0EEC0E889F98980819C
:145D70008B3221F4CF010196998B888BE889F9898081803308
:145D8400D1F421803324822D883511F0883799F48C899D895A
:145D98008031E0E09E0721F00C018030890749F480E190E075
:145DAC009D8B8C8B888999890296998B888B0C881D88002049
:145DC00081F4112071F4E889F9898081803321F488E090E030
:145DD4005C0103C08AE090E05C01BD8AAC8A8C899D898A30F2
:145DE800E0E09E0724F089E390E05C0105C08C899D8901975D
:145DFC00C0965C0165018AE090E00C881D88801591050CF040
:145E100085C0C0010B978F599F4F998788877EC0E889F989A0
:145E2400008111270E942A3358010030010761F0E889F989DD
:145E380020803324C214D3042CF080819927C0977C0120C021
:145E4C008AE090E00C881D88801591050CF066C0E889F989EF
:145E6000008111270E94653358017501C5010136E0E01E078A
:145E74000CF458C008841984001611060CF452C081569040F3
:145E88000A967C01288039804A805B802C823D824E825F82C5
:145E9C002C883D88442437FC4094552447FC50940881198147
:145EB0002A813B815A924A923A922A920E94CC27180129014F
:145EC4003701882477FC8094992487FC9094260C371C481C12
:145ED800591C288239824A825B822C803D804E805F80688035
:145EEC0079808A809B80621473048404950458F482E090E058
:145F000090931C0B80931B0B0FEF1FEF2FEF3FEF1AC08889C7
:145F140099890196998B888BE889F9892080222009F07CCF70
:145F28000A881B88002011F4112029F0F0010888198811820C
:145F3C000082088119812A813B812A960E940528249608955F
:145F50003A932A930E9417285801CE84DF84A501160144249F
:145F640037FC4094552447FC50940A851B852C853D855A92F4
:145F78004A923A922A920E944027B80189E090E080179107E7
:145F8C0034F0CB01C096FA018193AF0106C0CB01895A9F4F99
:145FA000FA018193AF011601442437FC4094552447FC509408
:145FB4000A851B852C853D855A924A923A922A920E943E27E0
:145FC8000A871B872C873D872A843B844C845D84889422209F
:145FDC0032044204520409F0BDCF2A01415050402224F201D5
:145FF000208265010CC0F601E080FA012080F60121926F01BD
:146004001A0141505040F101E082C416D50688F385010E94A0
:146018000C28229608950E94172869015801EA84FB84A501B4
:14602C00970186010E942227B80189E090E08017910734F071
:14604000CB01C096FA018193AF0106C0CB01895A9F4FFA010D
:146054008193AF01970186010E9424276801CC2019F7DD2006
:1460680009F72A01415050402224F201208265010CC0F601D4
